{
  "contractName": "ApprovalContract",
  "abi": [
    {
      "constant": true,
      "inputs": [],
      "name": "approver",
      "outputs": [
        {
          "internalType": "address",
          "name": "",
          "type": "address"
        }
      ],
      "payable": false,
      "stateMutability": "view",
      "type": "function"
    },
    {
      "constant": true,
      "inputs": [],
      "name": "receiver",
      "outputs": [
        {
          "internalType": "address payable",
          "name": "",
          "type": "address"
        }
      ],
      "payable": false,
      "stateMutability": "view",
      "type": "function"
    },
    {
      "constant": true,
      "inputs": [],
      "name": "sender",
      "outputs": [
        {
          "internalType": "address",
          "name": "",
          "type": "address"
        }
      ],
      "payable": false,
      "stateMutability": "view",
      "type": "function"
    },
    {
      "constant": false,
      "inputs": [
        {
          "internalType": "address payable",
          "name": "_receiver",
          "type": "address"
        }
      ],
      "name": "deposit",
      "outputs": [],
      "payable": true,
      "stateMutability": "payable",
      "type": "function"
    },
    {
      "constant": true,
      "inputs": [],
      "name": "viewApprover",
      "outputs": [
        {
          "internalType": "address",
          "name": "",
          "type": "address"
        }
      ],
      "payable": false,
      "stateMutability": "pure",
      "type": "function"
    },
    {
      "constant": false,
      "inputs": [],
      "name": "approve",
      "outputs": [],
      "payable": true,
      "stateMutability": "payable",
      "type": "function"
    }
  ],
  "bytecode": "0x608060405234801561001057600080fd5b50610400806100206000396000f3fe6080604052600436106100555760003560e01c806312424e3f1461005a578063141a8dd81461006457806367e404ce146100bb578063d93ce89c14610112578063f340fa0114610169578063f7260d3e146101ad575b600080fd5b610062610204565b005b34801561007057600080fd5b506100796102bb565b604051808273ffffffffffffffffffffffffffffffffffffffff1673ffffffffffffffffffffffffffffffffffffffff16815260200191505060405180910390f35b3480156100c757600080fd5b506100d06102d3565b604051808273ffffffffffffffffffffffffffffffffffffffff1673ffffffffffffffffffffffffffffffffffffffff16815260200191505060405180910390f35b34801561011e57600080fd5b506101276102f8565b604051808273ffffffffffffffffffffffffffffffffffffffff1673ffffffffffffffffffffffffffffffffffffffff16815260200191505060405180910390f35b6101ab6004803603602081101561017f57600080fd5b81019080803573ffffffffffffffffffffffffffffffffffffffff169060200190929190505050610314565b005b3480156101b957600080fd5b506101c26103a5565b604051808273ffffffffffffffffffffffffffffffffffffffff1673ffffffffffffffffffffffffffffffffffffffff16815260200191505060405180910390f35b73b10532bbfb6c59f566d63278235ec44d9c2b203b73ffffffffffffffffffffffffffffffffffffffff163373ffffffffffffffffffffffffffffffffffffffff161461025057600080fd5b600160009054906101000a900473ffffffffffffffffffffffffffffffffffffffff1673ffffffffffffffffffffffffffffffffffffffff166108fc479081150290604051600060405180830381858888f193505050501580156102b8573d6000803e3d6000fd5b50565b73b10532bbfb6c59f566d63278235ec44d9c2b203b81565b6000809054906101000a900473ffffffffffffffffffffffffffffffffffffffff1681565b600073b10532bbfb6c59f566d63278235ec44d9c2b203b905090565b6000341161032157600080fd5b336000806101000a81548173ffffffffffffffffffffffffffffffffffffffff021916908373ffffffffffffffffffffffffffffffffffffffff16021790555080600160006101000a81548173ffffffffffffffffffffffffffffffffffffffff021916908373ffffffffffffffffffffffffffffffffffffffff16021790555050565b600160009054906101000a900473ffffffffffffffffffffffffffffffffffffffff168156fea265627a7a723158206accec56488e4f89f50f40c8e939035c66f3b174de457b946d7edd2f6588e71264736f6c63430005100032",
  "source": "pragma solidity ^0.5.16;\n\ncontract ApprovalContract {\n\t\n\taddress public sender;\n\taddress payable public receiver;\n\n\taddress public constant approver = 0xb10532Bbfb6C59F566D63278235ec44D9C2b203b;\n\n\tfunction deposit(address payable _receiver) external payable {\n\trequire(msg.value > 0);\n\tsender = msg.sender;\n\treceiver = _receiver;\n\t}\n\n\tfunction viewApprover() external pure returns(address) {\n\treturn(approver);\n\t}\n\n\tfunction approve() external payable {\n\t\trequire(msg.sender == approver);\n\t\treceiver.transfer(address(this).balance);\n\t}\n}",
  "sourcePath": "/Users/malhar197/Desktop/LL-Dapp-tutorial/contracts/ApprovalContract.sol",
  "compiler": {
    "name": "solc",
    "version": "0.5.16+commit.9c3226ce.Emscripten.clang"
  },
  "schemaVersion": "3.1.0",
  "updatedAt": "2020-05-17T02:34:11.470Z",
  "networkType": "ethereum",
  "devdoc": {
    "methods": {}
  },
  "userdoc": {
    "methods": {}
  }
}